S014000046696E616C50726F6A6563742E737265634F
S113000095C00000B1C00000AFC00000ADC000004A
S1130010ABC00000A9C00000A7C00000A5C000003C
S1130020A3C0000082C500009FC00000D4C500002A
S11300309BC0000099C0000097C0000095C000005C
S113004093C0000091C000008FC000008DC000006C
S11300508BC0000089C0000087C0000085C000007C
S113006083C0000081C000007FC000007DC000008C
S11300707BC0000079C0000077C0000075C000009C
S113008073C0000071C000006FC0000005A84CCD13
S1130090B2D44EB93836A9020C50B9918688083CBE
S11300A0A6AAAA2ABE000000803F07634236B79B77
S11300B0D8A71A39685618AEBAAB558C1D3CB7CCC4
S11300C05763BD6DEDFD753EF6177231BF0000003C
S11300D0803F08000000BE922449123EABAAAA2A1F
S11300E0BECDCCCC4C3E00000080BEABAAAAAA3E3A
S11300F000000000BF000000803F00000000000876
S11301004178D3BB4387D1133D190E3CC3BD428212
S1130110AD2B3E68EC8276BED98FE1A93E4C80EFD0
S1130120FFBE01C4FF7F3F000000000011241FBE7A
S1130130CFEFD0E1DEBFCDBF11E0A0E0B1E0E6E457
S1130140FEE100E00BBF02C007900D92AA36B10792
S1130150D9F721E0AAE6B1E001C01D92AE3CB20796
S1130160E1F7B7D10C94210F4BCF2F923F924F92CE
S11301705F926F927F928F929F92AF92BF92CF9233
S1130180DF92EF92FF920F931F93CF93DF93CDB73C
S1130190DEB7C456D1090FB6F894DEBF0FBECDBF8B
S11301A088E2E3E1F1E0DE01119601900D928A9577
S11301B0E1F788E290E00E94C40AA5969FAF8EAF53
S11301C0A5979E012F5F3F4F690100E010E0790180
S11301D006C0D6018D916D01CFD40F5F1F4FF7017B
S11301E001900020E9F73197EE19FF090E171F0758
S11301F080F380E090E0C4D480E293E080D4A12C2A
S1130200B12C6F961FAE1EAE6F97A3961FAE1EAE97
S1130210A397612C712CEFEFFFEFA196FFAFEEAF28
S1130220A1977E01F9E2EF0EF11C6C96EFAE6C978C
S11302306D96FFAE6D97212C312CC501A1D40ED53E
S1130240482E592E46D54C015F924F929F928F9320
S1130250BF92AF92A6E0B1E0BF93AF93FF92EF924B
S11302600E94270C6C96CFAC6C976D96DFAC6D97A3
S11302700FB6F894DEBF0FBECDBF022D132D06C0FE
S1130280D6018D916D0178D40F5F1F4FF701019056
S11302900020E9F73197EE19FF090E171F0780F3C5
S11302A0B5E68B1691040CF07FC06114710409F05B
S11302B06FC0A196EEADFFADA1973196A196FFAFA9
S11302C0EEAFA1976E964FAE6E976F965FAE6F9737
S11302D0A396BFAEAEAEA39766246394712C58C0A8
S11302E0A1960EAD1FADA197000F111F000F111F96
S11302F0A5962EAD3FADA597020F131FA3968EAD05
S11303009FADA3978A0D9B1D99230CF40196959597
S11303108795D80113969C938E9312976F96EEADA2
S1130320FFAD6F97BF01882777FD8095982F04D67E
S11303309B01AC01C6D69B01AC01FCD42B013C0152
S1130340A3968EAD9FADA3978A199B09BC0122F495
S113035066277727681B790B882777FD8095982F68
S1130360EBD54CD59B01AC01C301B201AAD69B01CC
S1130370AC01C301B201DDD457D720E030E040EB3B
S113038050E43FD5A6D5D8016D937C93622C732C91
S1130390B2E0AB0EB11C88EC90E0B1D3E6EBAE1644
S11303A0B10409F04ACF05C0F1E06F16710481F77A
S11303B097CFA5968EAD9FADA597CC59DF4F0FB6BD
S11303C0F894DEBF0FBECDBFDF91CF911F910F9187
S11303D0FF90EF90DF90CF90BF90AF909F908F9061
S11303E07F906F905F904F903F902F900895EF9281
S11303F0FF920F931F93CF93DF93CDB7DEB7279769
S11304000FB6F894DEBF0FBECDBF8C01B1D38237D7
S113041039F0833709F43AC08D3609F04BC01CC05B
S1130420A7D38983A5D38A83A3D38B83CE010196D3
S11304300E94EB0BE82EF92E9F938F932BE331E070
S11304403F932F93C7D06E2D7F2DC80166D10F9097
S11304500F900F900F9030C08BD38D8389D38E83F0
S1130460CE0105960E94EB0BE82EF92E9F938F93F5
S113047027E431E03F932F93ADD06E2D7F2DC8013B
S113048096D10F900F900F900F9016C06EDE8C01D6
S1130490FC0181818F9380818F9384E591E09F9308
S11304A08F9398D0C8010E945C0B0F900F900F900F
S11304B00F9002C05DD3ABCF27960FB6F894DEBF82
S11304C00FBECDBFDF91CF911F910F91FF90EF90A1
S11304D008952FD0F3D3BED361D33ED3C4D1EC015E
S11304E0C6D2CE0184DFFDCFDE9A90E008D3DE9839
S11304F08BB3807F8BBB0895CF93C82FDC988BB3CD
S11305009C2F92959F70892B8BBB82E0EDDF8BB380
S1130510CF70C82BCBBB82E0E7DFDC9ACF91089584
S113052081E0EADF81E090E0EAC2089582E0E4CF6E
S113053008958FEF8ABB83E08BBBDE9A81E090E065
S1130540DED2DE9885E090E0DAD2DE9A81E090E0B7
S1130550D6D2DE98DE9A81E090E0D1D2DE9882E0B5
S11305608BBB81E0C1DF8BB38BBB81E0BDDF8BB381
S11305708E608BBB81E0B8DF8BB38BBB81E0B4DFD3
S11305808BB386608BBB81E0AFDF8BB38BBB81E029
S1130590ABDFD89A81E0A8DFDC9AC8CF089580EC5D
S11305A0ABCF089584E9A8CF089584EDA5CF08952D
S11305B0CF93C82F8BB39C2F92959F70892B8BBBA5
S11305C081E092DF8BB3CF70C82BCBBB81E08CDF93
S11305D0CF910895CF92DF92EF92FF920F931F93E2
S11305E0CF93DF93CDB7DEB7C155D1090FB6F894D9
S11305F0DEBF0FBECDBFFE01E45AFF4F41915191C2
S11306009F0161E570E0CE0101960E94550CBE0188
S11306106F5F7F4F8AE691E00E940F0C892B09F4EB
S113062040C0BE016F5F7F4F8AE691E00E94180CC4
S113063077DF9E012F5F3F4F690100E010E00F2E2E
S1130640F4E1EF2EF12CF02D24C08A3049F4C801D6
S1130650B70159D7F701E81BF90B0E0F1F1F03C091
S1130660A7DF0F5F1F4FC801B7014DD7892B89F44E
S1130670C801B70148D76230710541F06330710594
S113068039F06130710529F48ADF03C08BDF01C0C2
S11306908CDFF60181916F01882319F00035110573
S11306A0A4F2CF5ADF4F0FB6F894DEBF0FBECDBF12
S11306B0DF91CF911F910F91FF90EF90DF90CF903A
S11306C008950F931F93CF93DF938C01EB01CC0F0D
S11306D0DD1F660F771F660F771F660F771FC60F24
S11306E0D71F68E37FEF88E39FEFE7D01C161D0652
S11306F054F4C80101D1F80184859585C80FD91F28
S11307001C161D06B4F360E070E080E090E0D5D0E4
S1130710DF91CF911F910F9108950F931F93CF9362
S1130720DF938C01EB0166E970E08AE69FEFC5D0A8
S11307301C161D0654F4C801DFD0F8018685978580
S1130740C80FD91F1C161D06B4F360E070E080E0EA
S113075090E0B3D0DF91CF911F910F910895EF9264
S1130760FF920F931F93CF93DF938C017B016AE673
S11307707FEF86E990E0A1D01E141F0464F4C0E06A
S1130780D0E0C801B9D0F80186859785C80FD91F74
S1130790CE15DF05B4F360E070E080E090E08DD02A
S11307A0DF91CF911F910F91FF90EF900895CF9219
S11307B0DF92EF92FF920F931F93CF93DF93EC019D
S11307C06B0168EC70E088EC90E077D07601EE0C79
S11307D0FF1CC601880F991F880F991F880F991F46
S11307E0E80EF91E1E141F0484F58881837011F12C
S11307F004C08881837001F102C000E010E06FE062
S113080070E0CE015EDF67E570E0CE0186DF69E16E
S113081070E0CE01CCDF67E570E0CE01A0DFC80157
S11308206AE070E070D6C601861B970BBC01CE014E
S1130830BEDF0BC000E010E0CE015ED08C859D854C
S1130840080F191F0E151F05A4F260E070E080E088
S113085090E033D0DF91CF911F910F91FF90EF90F3
S1130860DF90CF90089564E370E081E090E072C679
S11308700895EBE9F0E0908195FFFDCF80939C0013
S113088008950F931F93CF93DF93082F162FD42F20
S1130890C22F8BE8EEDF112329F081E0011103C0A0
S11308A080E001C080E0E5DF8D2FE3DF8C2FE1DF06
S11308B0DF91CF911F910F9108950F931F93CF93C1
S11308C0DF93182F092FC62FD72F81E9D2DF802F6E
S11308D0D0DF812FCEDF8D2FCCDF8C2FCADFDF91CD
S11308E0CF911F910F910895EBE9F0E08081882367
S11308F0ECF780919C000895EF92FF920F931F9361
S1130900CF93DF937C0180919B00882344F4ACE96E
S1130910B0E0EBE9F0E08C9180818823E4F38EE889
S1130920A8DF86E0A6DFE70187010C5C1F4FDCDF50
S11309308993C017D107D9F7F701848590E0982FE0
S113094088272585820F911D95878487868590E069
S1130950982F88272785820F911D978786878189FD
S113096090E0982F88272289820F911D928B818B8A
S1130970838990E0982F88272489820F911D948B76
S1130980838B868990E0982F88272789820F911D71
S1130990978B868B808D90E0982F8827218D820FEE
S11309A0911D918F808F828D90E0982F8827238DC1
S11309B0820F911D938F828F848D90E0982F8827CA
S11309C0258D820F911D958F848F868D90E0982FB1
S11309D08827278D820F911D978F868F80A190E0A5
S11309E0982F882721A1820F911D91A380A382A112
S11309F090E0982F882723A1820F911D93A382A3AF
S1130A0082A590E021A530E0322F2227280F391F3C
S1130A1036A325A320A930E0322F2227820F931F6B
S1130A2095A784A782A990E0982F882723A9820FED
S1130A30911D97A786A784A990E0982F882725A9B8
S1130A40820F911D91AB80AB86A990E0982F8827E7
S1130A5027A9820F911D93AB82AB83E290E04FD024
S1130A60DF91CF911F910F91FF90EF9008950F9315
S1130A701F93CF93DF93EC0109E910E080E1F801C3
S1130A80808388E180939A0086E080939D0080E8CB
S1130A90F0DE81E8EEDE88E0ECDE84E690E02FD044
S1130AA081E2F801808384E8E4DE2FEF47E061E02F
S1130AB081E0E7DECE0120DFCE011EDFDF91CF91A2
S1130AC01F910F9108951092C9011092C8018111CC
S1130AD006C08BE085BD87B7806887BF07C08130BB
S1130AE029F489E085BD87B7806887BF7894089525
S1130AF087B78F7787BF85B58F7785BD0895CF93E7
S1130B00DF93EC018AEF83BD1092C9011092C801F2
S1130B1080E0D9DF2091C8013091C9012C173D072D
S1130B20C8F3E6DFDF91CF9108951F920F920FB6BD
S1130B300F9211248F939F938091C8019091C901C2
S1130B4001969093C9018093C8019F918F910F9052
S1130B500FBE0F901F9018951092900082E289B9F1
S1130B6082E08BB98EE08093950088E18AB908957C
S1130B705F9BFECF8CB108955D9BFECF8CB9089529
S1130B8024E1AC01249FC001259F900D1124805EB7
S1130B909C4F9093850080938400089583E2809312
S1130BA08B008AE180938A0088EF97EA909387000C
S1130BB08093860080E293E0909385008093840084
S1130BC080E182B908958C9A949A81E090E097DF4D
S1130BD094988C9808951F920F920FB60F92112437
S1130BE08F939F93AF93BF938091C701811113C0DB
S1130BF086B597B5A0E0B0E08093C3019093C4019B
S1130C00A093C501B093C60181E08093C7018EB55E
S1130C108F7B8EBD16C08091C701813091F486B55B
S1130C2097B5A0E0B0E08093BF019093C001A0937A
S1130C30C101B093C20182E08093C7018EB5806484
S1130C408EBDBF91AF919F918F910F900FBE0F906A
S1130C501F90189516BE83EC8EBD08951092C7019F
S1130C6087B78F7D87BFAFDF86B7806286BF87B7C0
S1130C70806287BF8091C7018230E1F74091BF0154
S1130C805091C0016091C1017091C2018091C30172
S1130C909091C401A091C501B091C601BA01681B2D
S1130CA0790B882777FD8095982F46D129E43BE47A
S1130CB04BE651E4A6D00DD1CB01089582EC87B95F
S1130CC087E886B90895369A3699FECF84B195B1EE
S1130CD008950F931F93CF93DF93C5E0D0E000E016
S1130CE010E0F1DF080F191F21972097D1F7C801F1
S1130CF065E070E008D47093BC016093BB01882761
S1130D0077FD8095982F18D12FEC37EF43E95FEBEF
S1130D103BD220E036EF4EEB56E4D3D1DAD07093D9
S1130D20BE016093BD01CB01DF91CF911F910F9163
S1130D3008955058BB27AA270ED078C141D130F06E
S1130D4046D120F031F49F3F11F41EF436C10EF465
S1130D50E095E7FB2CC1E92F8BD180F3BA1762072A
S1130D6073078407950718F071F49EF5A3C10EF478
S1130D70E0950B2EBA2FA02D0B01B90190010C01A7
S1130D80CA01A0011124FF27591B99F0593F50F4BF
S1130D90503E68F11A16F040A22F232F342F442717
S1130DA0585FF3CF469537952795A795F04053950F
S1130DB0C9F77EF41F16BA0B620B730B840BBAF0DF
S1130DC09150A1F0FF0FBB1F661F771F881FC2F74A
S1130DD00EC0BA0F621F731F841F48F4879577955E
S1130DE06795B795F7959E3F08F0B3CF9395880F15
S1130DF008F09927EE0F979587950895F0D0E3951D
S1130E0026C10CD013C1E3D040F0DAD030F021F485
S1130E105F3F19F0CCC051114EC1CFC029D198F316
S1130E209923C9F35523B1F3951B550BBB27AA2767
S1130E3062177307840738F09F5F5F4F220F331FD9
S1130E40441FAA1FA9F333D00E2E3AF0E0E830D0A5
S1130E5091505040E695001CCAF729D0FE2F27D0A8
S1130E60660F771F881FBB1F261737074807AB0776
S1130E70B0E809F0BB0B802DBF01FF2793585F4FEB
S1130E802AF09E3F510568F092C015C15F3FECF314
S1130E90983EDCF3869577956795B795F7959F5FB0
S1130EA0C9F7880F911D9695879597F90895E1E004
S1130EB0660F771F881FBB1F621773078407BA0763
S1130EC020F0621B730B840BBA0BEE1F88F7E095BE
S1130ED0089504D06894B111EEC00895D1D088F07B
S1130EE09F5790F0B92F9927B751A0F0D1F0660F12
S1130EF0771F881F991F1AF0BA95C9F712C0B1302D
S1130F0081F0D8D0B1E00895D5C0672F782F882715
S1130F10B85F39F0B93FCCF3869577956795B3956B
S1130F20D9F73EF490958095709561957F4F8F4FDA
S1130F309F4F0895E89409C097FB3EF490958095DF
S1130F40709561957F4F8F4F9F4F9923A9F0F92F8B
S1130F5096E9BB279395F695879577956795B79509
S1130F60F111F8CFFAF4BB0F11F460FF1BC06F5FEF
S1130F707F4F8F4F9F4F16C0882311F096E911C001
S1130F80772321F09EE8872F762F05C0662371F022
S1130F9096E8862F70E060E02AF09A95660F771F36
S1130FA0881FDAF7880F9695879597F9089597F92A
S1130FB09F6780E870E060E008959FEF80EC0895FB
S1130FC000240A9416161706180609060895002424
S1130FD00A9412161306140605060895EECF50D08F
S1130FE0E8F3E894E0E0BB279F57F0F02AED3FE0F8
S1130FF049EC06C0EE0FBB0F661F771F881F28F051
S1131000B23A62077307840728F0B25A620B730B73
S1131010840BE3959A9572F7803830F49A95BB0F58
S1131020661F771F881FD2F790486FC1092E03945B
S1131030000C11F4882352F0BB0F40F4BF2B11F4C1
S113104060FF04C06F5F7F4F8F4F9F4F0895EF93F2
S1131050E0FF06C0A2EA2AED3FE049EC5FEB7BDE4D
S1131060E5DF0F90039401FC9058ECE8F0E085C1B3
S113107057FD9058440F551F59F05F3F71F0479545
S1131080880F97FB991F61F09F3F79F0879508952A
S1131090121613061406551FF2CF4695F1DF08C049
S11310A0161617061806991FF1CF86957105610566
S11310B008940895E894BB2766277727CB0197F90E
S11310C008950BD0B3CF7CDF28F081DF18F095238F
S11310D009F06DCF72CF1124EECFCADFA0F3959F34
S11310E0D1F3950F50E0551F629FF001729FBB270B
S11310F0F00DB11D639FAA27F00DB11DAA1F649FB7
S11311006627B00DA11D661F829F2227B00DA11D69
S1131110621F739FB00DA11D621F839FA00D611DEF
S1131120221F749F3327A00D611D231F849F600D10
S1131130211D822F762F6A2F11249F5750408AF049
S1131140E1F088234AF0EE0FFF1FBB1F661F771FD5
S1131150881F91505040A9F79E3F510570F027CF4A
S1131160AACF5F3FECF3983EDCF3869577956795BD
S1131170B795F795E7959F5FC1F7FE2B880F911DF3
S11311809695879597F90895FA01EE0FFF1F30960B
S11311902105310599F16115710561F48038BFE3CA
S11311A09B0749F168949038810561F08038BFEF5E
S11311B09B0741F0992342F5FF3FE10531052105E5
S11311C011F1E8940894E795D901AA2329F4AB2FE7
S11311D0BE2FF85FD0F310C0FF5F70F4A695E0F760
S11311E0F73950F019F0FF3A38F49F779F930CD0F9
S11311F00F9007FC905808953EF0DFCE60E070E059
S113120080E89FE308954FE79F775F934F933F9361
S11312102F9306D12F913F914F915F9152DF47C099
S113122011F40EF4CACE6FC02BDFD0F39923D9F397
S1131230CEF39F57550B87FF74D00024A0E640EAF5
S1131240900180585695979528F4805C660F771F17
S1131250881F20F026173707480730F4621B730BEA
S1131260840B202931294A2BA6951794079420250D
S113127031254A2758F7660F771F881F20F0261755
S11312803707480730F4620B730B840B200D311DB4
S1131290411DA09581F7B901842F9158880F969527
S11312A08795089519F40EF082CE04CF86CEE8DE39
S11312B0C8F39638C0F707F80F92E8942BE33AEA9C
S11312C048EB5FE70CDF0F920F920F924DB75EB7BA
S11312D00F92E6D0EAEAF0E02BD04F915F91EF91C4
S11312E0FF91E595EE1FFF1F49F0FE57E068442784
S11312F0EE0F441FFA95E1F74195550B58D00F9026
S113130007FE4CC008959F3F31F0915020F487951B
S113131077956795B795880F911D9695879597F959
S1131320089591505040660F771F881FD2F7089593
S1131330DF93CF931F930F93FF92EF92DF927B0182
S11313408C01689405C0DA2EEF01C7DEFE01E89433
S1131350A5912591359145915591AEF3EF01FBDCB3
S1131360FE019701A801DA9479F7DF90EF90FF90DE
S11313700F911F91CF91DF9108959F938F937F9346
S11313806F93FF93EF939B01AC019BDEEF91FF9171
S1131390CFDF2F913F914F915F9193CE9B01AC0191
S11313A060E070E080E89FE32CCD01CEACCF68DE36
S11313B0E8F39923D9F3940F511DBBF39150504096
S11313C094F059F0882332F0660F771F881F9150EC
S11313D05040C1F79E3F510544F7880F911D9695E3
S11313E0879597F908955F3FACF0983E9CF0BB2732
S11313F0869577956795B79508F4B1609395C1F78D
S1131400BB0F58F711F460FFE8CF6F5F7F4F8F4F2A
S11314109F4FE3CF50CE0EF076CFCFCD6894C7CD9B
S11314202FDEC8F39923D1F3C6F3DF93CF931F9331
S11314300F93FF92C92FDD2788232AF02197660F87
S1131440771F881FDAF720E030E040E85FEB9FE386
S1131450883920F0803E30F021968F776BDCE2ED06
S1131460F0E003C067DCEFEFF0E062DF8B01BE0168
S1131470EC01FB2E6F5771097595771F880B990B3B
S11314805BDD28E132E741E35FE327DEAF2D98011E
S1131490AE01FF900F911F91CF91DF915CDCC6CD1F
S11314A0FA01DC01AA0FBB1F9B01AC01BF5728F452
S11314B022273327442750781FC0B75188F4AB2F15
S11314C00024469537952795011CA395D2F3002057
S11314D069F0220F331F441FB395DAF30DD029CCE2
S11314E061307105A0E88A07B94630F49B01AC016C
S11314F06627772788279078309621F020833183D8
S113150042835383089597FB072E16F4009406D064
S113151077FD08D00BD007FC05D03EF4909581955B
S11315209F4F0895709561957F4F0895AA1BBB1B2B
S113153051E107C0AA1FBB1FA617B70710F0A61BCF
S1131540B70B881F991F5A95A9F780959095BC01F0
S1131550CD0108950F931F93CF93DF93869F80014E
S1131560879F100D969F100D1124C8010DD0EC011A
S1131570009721F0A80160E070E04AD1CE01DF912C
S1131580CF911F910F910895CF93DF9382309105EE
S113159010F482E090E0E091CC01F091CD0120E0E4
S11315A030E0A0E0B0E0309739F140815181481734
S11315B05907B8F04817590771F48281938110973D
S11315C029F013969C938E9312972CC09093CD017F
S11315D08093CC0127C02115310531F04217530700
S11315E018F0A901DB0101C0EF019A01BD01DF017F
S11315F00280F381E02DD7CF21153105F9F0281BA6
S1131600390B2430310580F48A819B816115710581
S113161021F0FB019383828304C09093CD018093D6
S1131620CC01FE01329644C0FE01E20FF31F819308
S1131630919322503109398328833AC02091CA01F9
S11316403091CB01232B41F420910201309103010D
S11316503093CB012093CA01209100013091010104
S11316602115310541F42DB73EB740910401509145
S11316700501241B350BE091CA01F091CB01E2175F
S1131680F307A0F42E1B3F0B2817390778F0AC01A1
S11316904E5F5F4F2417350748F04E0F5F1F50937E
S11316A0CB014093CA018193919302C0E0E0F0E042
S11316B0CF01DF91CF910895CF93DF93009709F481
S11316C087C0FC01329713821282C091CC01D09161
S11316D0CD01209781F420813181280F391F809119
S11316E0CA019091CB018217930779F5F093CB014E
S11316F0E093CA016DC0DE0120E030E0AE17BF0701
S113170050F412964D915C9113979D01411551052A
S113171009F1DA01F3CFB383A28340815181840FAD
S1131720951F8A179B0771F48D919C911197840FD3
S1131730951F02969183808312968D919C911397A5
S1131740938382832115310529F4F093CD01E0932D
S1131750CC013EC0D9011396FC93EE9312974D91A0
S11317605D91A40FB51FEA17FB0779F4808191817D
S1131770840F951F0296D90111969C938E938281B2
S1131780938113969C938E931297E0E0F0E08A8104
S11317909B81009719F0FE01EC01F9CFCE0102966E
S11317A028813981820F931F2091CA013091CB0186
S11317B02817390769F4309729F41092CD01109253
S11317C0CC0102C013821282D093CB01C093CA0110
S11317D0DF91CF910895FC0188279927E8942191FE
S11317E02032E9F3293010F02E30C8F32B3239F0CF
S11317F02D3231F4689403C022D0820F911D2191BF
S113180020532A30C8F31EF4909581959F4F089574
S1131810DC0101C06D9341505040E0F70895FB0195
S1131820DC018D91019080190110D9F3990B089571
S1131830FB01DC0101900D920020E1F708957AE0AC
S1131840979F902D879F802D910D112408950F93BC
S11318501F93CF93DF93CDB7DEB72E970FB6F894CF
S1131860DEBF0FBECDBF0D891E8986E08C831A832F
S113187009838FEF9FE79E838D83AE01475E5F4FA1
S11318806F89788DCE01019648D0EF81F885E00FFD
S1131890F11F10822E960FB6F894DEBF0FBECDBF97
S11318A0DF91CF911F910F9108950F931F93CF93C1
S11318B0DF93CDB7DEB72E970FB6F894DEBF0FBE19
S11318C0CDBF8C01CA0146E04C831A83098377FF9C
S11318D002C060E070E8615071097E836D83A901E4
S11318E0BC01CE01019619D04D815E8157FD0AC01D
S11318F02F813885421753070CF49A01F801E20F3F
S1131900F31F10822E960FB6F894DEBF0FBECDBF24
S1131910DF91CF911F910F9108952F923F924F9293
S11319205F926F927F928F929F92AF92BF92CF926B
S1131930DF92EF92FF920F931F93CF93DF93CDB774
S1131940DEB72C970FB6F894DEBF0FBECDBF7C0177
S11319506B018A01FC0117821682838181FFB0C169
S1131960CE0101964C01F7019381F60193FD859117
S113197093FF81916F01882309F49EC1853239F464
S113198093FD859193FF81916F01853221F4B70115
S113199090E0C7D1E8CF512C312C20E02032A0F4C4
S11319A08B3269F030F4803259F0833269F420616B
S11319B02CC08D3239F0803339F4216026C0226086
S11319C0246023C0286021C027FD27C030ED380FD4
S11319D03A3078F426FF06C0FAE05F9E300D1124F9
S11319E0532E13C08AE0389E300D1124332E20620A
S11319F00CC08E3221F426FD5FC1206406C08C36F3
S1131A0011F4206802C0883641F4F60193FD8591F3
S1131A1093FF81916F018111C1CF982F9F7D9554C0
S1131A20933028F40C5F1F4FFFE3F9830DC0833616
S1131A3031F0833771F0833509F057C021C0F801C4
S1131A40808189830E5F1F4F44244394512C540199
S1131A5014C03801F2E06F0E711CF801A080B1804F
S1131A6026FF03C0652D70E002C06FEF7FEFC50154
S1131A702C874CD12C0183012C852F77222E16C064
S1131A803801F2E06F0E711CF801A080B18026FFCE
S1131A9003C0652D70E002C06FEF7FEFC5012C8796
S1131AA02AD12C012C852068222E830123FC19C005
S1131AB0832D90E048165906A0F4B70180E290E027
S1131AC030D13A94F5CFF50127FC859127FE819119
S1131AD05F01B70190E025D131103A94F1E04F1A3B
S1131AE051084114510479F7DEC0843611F0893667
S1131AF031F5F80127FF07C06081718182819381EC
S1131B000C5F1F4F08C060817181882777FD809525
S1131B10982F0E5F1F4F2F76B22E97FF09C0909516
S1131B208095709561957F4F8F4F9F4F2068B22E9F
S1131B302AE030E0A40127D1A82EA81843C0853795
S1131B4029F42F7EB22E2AE030E025C0F22FF97F4F
S1131B50BF2E8F36C1F018F4883579F0ADC08037C8
S1131B6019F0883721F0A8C02F2F2061B22EB4FEBF
S1131B700DC08B2D8460B82E09C024FF0AC09F2F8E
S1131B809660B92E06C028E030E005C020E130E0C0
S1131B9002C020E132E0F801B7FE07C06081718124
S1131BA0828193810C5F1F4F06C06081718180E048
S1131BB090E00E5F1F4FA401E6D0A82EA818FB2DBD
S1131BC0FF77BF2EB6FE0BC02B2D2E7FA51450F42D
S1131BD0B4FE0AC0B2FC08C02B2D2E7E05C07A2CA0
S1131BE02B2D03C07A2C01C0752C24FF0DC0FE01DF
S1131BF0EA0DF11D8081803311F4297E09C022FF92
S1131C0006C07394739404C0822F867809F0739489
S1131C1023FD12C020FF06C05A2C731418F4530C71
S1131C205718732C731460F4B70180E290E02C878A
S1131C3078D073942C85F6CF731410F4371801C040
S1131C40312C24FF11C0B70180E390E02C8769D0C8
S1131C502C8522FF16C021FF03C088E590E002C056
S1131C6088E790E0B7010CC0822F867851F021FDFF
S1131C7002C080E201C08BE227FD8DE2B70190E053
S1131C8050D0A51430F4B70180E390E04AD05A94C0
S1131C90F8CFAA94F401EA0DF11D8081B70190E018
S1131CA040D0A110F6CF332009F45DCEB70180E215
S1131CB090E037D03A94F7CFF7018681978102C03C
S1131CC08FEF9FEF2C960FB6F894DEBF0FBECDBFFB
S1131CD0DF91CF911F910F91FF90EF90DF90CF9004
S1131CE0BF90AF909F908F907F906F905F904F9038
S1131CF03F902F900895FC010590615070400110B1
S1131D00D8F7809590958E0F9F1F0895FC01615020
S1131D10704001900110D8F7809590958E0F9F1F09
S1131D2008950F931F93CF93DF93182F092FEB017F
S1131D308B8181FD03C08FEF9FEF20C082FF10C015
S1131D404E815F812C813D81421753077CF4E881E9
S1131D50F9819F012F5F3F4F39832883108306C089
S1131D60E885F985812F0995892B29F72E813F81F3
S1131D702F5F3F4F3F832E83812F902FDF91CF9191
S1131D801F910F910895FA01AA27283051F12031AB
S1131D9081F1E8946F936E7F6E5F7F4F8F4F9F4FFB
S1131DA0AF4FB1E03ED0B4E03CD0670F781F891F3D
S1131DB09A1FA11D680F791F8A1F911DA11D6A0F0B
S1131DC0711D811D911DA11D20D009F468943F91BE
S1131DD02AE0269F11243019305D3193DEF6CF01BD
S1131DE00895462F4770405D4193B3E00FD0C9F783
S1131DF0F6CF462F4F70405D4A3318F0495D31FDF0
S1131E004052419302D0A9F7EACFB4E0A695979542
S1131E10879577956795BA95C9F700976105710518
S1131E2008959B01AC010A2E069457954795379562
S1131E302795BA95C9F7620F731F841F951FA01DBC
S1091E400895F894FFCFA1
S1131E460000CE0120000D0A25640909256409094C
S1131E562564000D0A4465677265657309202020B0
S1131E662020495244697374616E636509536F6E29
S1131E76617244697374616E636500446567726573
S1131E8665733A2025640044697374616E63653A28
S1131E96202564004F626A656374203120446961B9
S10D1EA66D657465723A202564002E
S9030000FC
